:020000020000FC
:1000000036C018951895189518951895189518953F
:1000100018950FC018951895189518951895189556
:1000200018951895189505E003BF01E008BF09BFB2
:1000300008952A931A930A932FB700EA12B3102750
:1000400012BB2FBF09911991299118950FEF08BB89
:1000500005BB02BB01B3006E01BB02B3006E02BB65
:10006000E2DF78940000FECF00008895FECF0FE914
:100070000DBF00E00EBFC0E8D0E003D0E7DFF4DF43
:06008000F3CF01E008953A
:0400000300000000F9
:00000001FF
