:020000020000FC
:1000000036C118951895189518951895189518953E
:100010001895189518951895189518951895189578
:100020001895189518950001051555FF7F5FF00686
:0500300000A00000002B
:100036000093A000089525D1A2EAB0E01C91119783
:10004600112369F410E811961C93E6E2F0E010E043
:10005600E00FF11F04911E91101709F00C931196F1
:100066000C911E91102311F0A99A01C0A99806952A
:1000760011960C93E4E00AC10091A000DCCFA19A8E
:10008600A99800E0D5CFE3EAF0E09A9905C001818E
:10009600003F10F4039501839B9905C00281003F40
:1000A60010F40395028303B30C700C30E9F401815C
:1000B600002359F010E010830C3810F002E003C062
:1000C6000A3010F001E0008311830281002361F001
:1000D6000C3818F00081066004C00A3018F0008160
:1000E6000460008300E0028308952FB7F89400911E
:1000F600A30010E01093A3002FBF002311F400E02B
:100106000895013011F401E00895023011F402E07F
:100116000895043011F403E00895063011F404E064
:10012600089505E0089505B5087F05BD08E005BDFD
:1001360004E603BD00E004BD089508B707FF04C048
:1001460000E808BF01E0089500E0089505B50260E3
:1001560005BD08950FEF08BB05BB02BB01E008957E
:1001660092D080E090E04AD0DEDFF0DF88DF01E069
:100176005FDF64D002C08BBD8ABDDFDF0023E9F3F9
:100186000196882309F47FDF36D03BD0883E03E012
:10019600900798F380E090E06FDFA7DF053059F312
:1001A600013049F428D0012B41F325D001501040ED
:1001B6001BBD0ABDE2CF033041F41DD00F3F1340F3
:1001C600E0F619D00F5F1F4FF3CF023039F4EAB5CE
:1001D600FBB5F39780F20FD00253E9CF043069F6EE
:1001E6000AD00D3C23E0134018F405D00E5CEBCF8B
:1001F6000EEF2BBDDECF0AB51BB50895B89AC09A8F
:10020600089521E030E0C09A4FE001C000004A9511
:10021600E9F75AE0C09AC098B90160237123672BA9
:1002260011F0C09A01C0C098000000000000220F23
:10023600331F452F5A95442369F7E1CFC198B99AE0
:1002460002EC0FBD08E10EBD0FEF13E017BD06BDB2
:1002560000E00BBD0ABD0DBD0CBD0EB501600EBDA7
:10026600089500008895FECF0FE90DBF00E00EBF90
:10027600C0E8D0E06FDF002309F021D071DFF1DFA5
:10028600F0CFBA93AA939A938A930895BB81AA81D1
:1002960099818881F0E00FB6F894CE0FDF1F0FBE6C
:1002A600089520E006D0E9F70895259102D0E9F7F0
:1002B60008952D9301501040202F212B08958FE291
:1002C60090E0FC0105911491FC013296A591B49140
:1002D600FC01349625913491422F432B19F0F901F4
:1002E600E4DF01C0DEDF069610E08533910748F3B0
:0202F600089569
:0400000300000000F9
:00000001FF
