:020000020000FC
:10000000B8C11895189518951895189518951895BC
:10001000189518951895189518951895B8C01895AD
:100020001895189518958C00A00000003F934F93E9
:100030005F93AA93BA93330F27FB30F93E5720689A
:1000400066275527442737FD0AC0303041F0000F9E
:10005000111F221F441F551F661F3A95C1F77FEFDE
:100060007395405A56486140D8F7405659476E4FED
:100070007A937FEF7395405157426040D8F7405FC5
:10008000584D6F4F7A937FEF7395485E5340E0F77A
:1000900048515C4F7A937FEF739544565040E0F798
:1000A0004C595F4F7A937FEF73954A50E8F7465F5C
:1000B0007A934A9337FD01C006C03195269517956E
:1000C00007953A95D9F778E126951795079567959D
:1000D0005795479567FD605363FD635057FD505337
:1000E00053FD535047FD405343FD43507A9561F70C
:1000F000762F72957F707A93762F7F707A93752F13
:1001000072957F707A93752F7F707A93742F7295A2
:100110007F707A93742F7F707A9367E0AC2FBD2F36
:100120001C966A957E91703011F46130D1F7EA2FF8
:10013000FB2F3697719104E0071B68F406E070818D
:1001400073957A3039F470E071930A95C1F763952D
:10015000119671E07083FF91EF91119670E23F91DB
:1001600037FD7DE2719306E07E91705D71930A9593
:100170006A95D1F77EE27193003029F07E91705D2F
:1001800071930A95F9CF2C96B991A99108957A9215
:100190006A92BA93AA938A93FA93EA933A922A922A
:1001A0001A920A927A936A935A934A933A932A93A9
:1001B0001A930A938FB7A0EAB0E004B115B1FD011C
:1001C000008711874D915D916D917C9113973B0153
:1001D00004B115B120E030E05FD1B3011CD0FD01C6
:1001E000028513850F5F1F4F028713878FBF099109
:1001F0001991299139914991599169917991099070
:10020000199029903990E991F9918991A991B99121
:1002100069907990189594D131D0139708950EEE86
:1002200006B900E407B97894089500E000BD09E13B
:1002300009B908E00AB906E800BD08955D9BFECF44
:100240000CB90895CED2D80180E00D91002321F0A1
:10025000F5DF83958038C8F30DE0F0DF0AE0EEDFCC
:1002600048C0BFD275D03D916FD077E440D240E016
:1002700050E060EA70E4C2D101D03BC00D931D9301
:100280002D933C930895ADD2ACEAB0E040E850E045
:100290002FE530E08D01B7D201E40C9304E4FD01B9
:1002A000018303E402830DE3038380EA90E0AD0160
:1002B0004C5F5F4FFC0100851185212F220F220B1F
:1002C000322FE0D0B3DE00E2FD01048701E60587AE
:1002D00003E6068707870DE3008BAD014F5E5F4F96
:1002E000FC010081118122813381A0DE00E0FD014B
:1002F000018FE4E07BC275D2F8942AD03C91139729
:10030000CDD040E450E05AD0CA010D911D912D91FD
:100310003C9119D072E4EBD17FDF8032904020F025
:10032000139611D07FE377DF9CDF00E0FD010287A9
:1003300003870D930D930D930C93A5DF0CEA10E04A
:1003400081DF7894D6CF139740E050E060E80895BD
:10035000A0EAB0E00D911D912D91089566DF5FDF59
:100360001091AB001031E4F3C6DFFACF000088959E
:10037000FECF0FE90DBF00E00EBFC0E8D0E041D2D4
:10038000002309F057D2EADFF1DFF0CF0024112477
:10039000EFE0001F111F001C111C0416150610F0C1
:1003A000041A150AEA95AAF7001F111FA00100956B
:1003B000109508955195419550400895FF27552374
:1003C00012F4F160F7DF112312F4F09506D0DEDFAE
:1003D000F0FD03D0F1FDEECF089511950195104089
:1003E00008954A952AF03695279517950795F9CFE0
:1003F000089530952095109501951F4F2F4F3F4F31
:100400000895FF27112477FB660F771F089409F4DE
:10041000771F679517F8EE27002437FB220F331F4D
:10042000089409F4331F279507F8089527FD0EC097
:10043000EE0F001F111F221F3A953230B8F73323F9
:1004400019F427FD31E002C027FF30E0E03821F445
:1004500000FF08940EF488940F4F1F4F2F4F3F4F0B
:10046000323038F4332319F427FD31E002C027FF7E
:1004700030E03F3F31F0220F000C3795279508956B
:10048000A3C0A8C0032E00200AF4B3DFE02F012F81
:10049000122F232F3EE9D1CF0024F8CFBCDF432F0A
:1004A0004F5758F0403258F000202AF00FEF1FEF5E
:1004B0002FEF3FE7089530E889C0332787C0322FF8
:1004C000212F102F0E2F4F5141958BDF07FE0895DE
:1004D00090CFF901EE0FFF1F37FBFF3F31F0EF2BFD
:1004E000E12BE02B8894B8940895E02BE12B21F0C8
:1004F00008949894B894089598948894389408959A
:10050000FB01EE0FFF1F77FBFF3F31F0EF2BE52BD9
:10051000E42B8894B8940895E42BE52B69F3E8CF95
:10052000EFDF68F021F43723262F8A010895372F53
:10053000FBCFE6DF20F00BF008957327EAF74EC0FB
:10054000C8DFE8F3B3F361F3DBDFC8F383F3A1F3B0
:1005500058DF401751076207730731F4011411F196
:100560000024E89488942BC078F0332E372F732D15
:10057000322E262F632D312E152F532D302E042F82
:10058000432D302C012C132C371739F066955795D5
:100590004795F795E0407395F7CFE7FBEE0FE0E066
:1005A00010246AF0EF0F041F151F261F60F4279513
:1005B00017950795E79508F4689433953ECFEF0BB0
:1005C000040B150B260B39CF302D3078222711273D
:1005D000002708953FE7302920E8F9CF3FEF2FEFBC
:1005E000F6CF8EDFD8F3D1F370783727089588DF00
:1005F000A8F3A3F3F9CF3078372796CF6ADF70F3EB
:1006000083F3A9F37DDF50F3B3F3A9F3FADE0124FA
:10061000E8943F57E040370FEF1F12F0D9F603C0C0
:100620003A3E90F26894E0E00A92AA933A93AA279D
:10063000332422243327049FF001059FF00D712DF0
:10064000731F149FF00D711D221C069F700D211C3D
:10065000331C159F700D211C331E249F700D211C0F
:10066000331E169F200C311CAA1F259F200C311C05
:10067000A31F269F300CA11D39915EF43395A695DA
:10068000379427947795F795E79533953130BCF3F8
:1006900016C0AA2322F0332351F4339510C03395AA
:1006A00071F4A991099096CFA7FD09C03A95EE0F74
:1006B000FF1F771F221C331CAA1F3230A8F7E894B3
:1006C000FE2B09F068942A2F8101E72FA991099048
:1006D000BDCE16DF10F00BF087CF80CF11DFE9F32E
:1006E000E0F3032E072670CF032E072673CFF1DE2B
:1006F000A0F37BF399F304DF80F39BF3A9F381DE8E
:10070000012427FD06C0000F111F221F3150E040B9
:10071000F8CF67FD06C0440F551F661F7150F040AB
:10072000F8CFE894371BEF0B3158EF4F2AF0EE2348
:10073000E9F63F3FD9F203C03A3EA8F26894E0E000
:10074000F0E01124139440175107620738F031503C
:1007500008F46894000F111F221FEE1F041B150BD5
:10076000260BEF0B000F111F221FEE1FAA9379E13A
:100770007A95AAF0041715072607EF0730F0041B37
:10078000150B260BEF0B089401C08894111C221C3A
:10079000331CAA1F000F111F221FEE1FE9CFF0F913
:1007A000E894E22BE12BE02B09F06894A6953794AE
:1007B00027941794E79508F468947395B9F3A99171
:1007C000332311F0F0FF09C0369427941794E7956E
:1007D00008F4689433953130BCF3012D122D232D8C
:1007E00035CEBA93AA939A938A930895BB81AA812E
:1007F00099818881F0E00FB6F894CE0FDF1F0FBE0D
:10080000089501E00895F80101C02193BA01415013
:100810005040672BD1F7089520E006D0E9F70895FE
:10082000259102D0E9F708952D9301501040202F13
:10083000212B089586E290E0FC0105911491FC01C2
:100840003296A591B491FC01349625913491422FB2
:10085000432B19F0F901E4DF01C0DEDF069610E05A
:080860008C32910748F3089562
:0400000300000000F9
:00000001FF
