:1000000085C01895189518951895189518951895F0
:10001000189527C01895189518951895189518953E
:100020001895189518950000E803D007B80BA00F95
:100030000400600000000CE207BB0895C598C59A53
:1000400008959A93912F929802C0C398F7DF93FB7B
:10005000E6F7C39AFBCF03E003BF01E008BF09BF87
:100060000895AA939A938A93FA93EA933A922A92DA
:100070001A920A927A936A935A934A933A932A93DA
:100080001A930A93AFB7E0E6F0E08281938185305E
:10009000904014F0F283F38306E210E02281338172
:1000A000220F331F020F131FF80105911491C9DFAE
:1000B000E0E6F0E0028113810F5F1F4F028313839C
:1000C000AFBF09911991299139914991599169913C
:1000D00079910990199029903990E991F991899134
:1000E0009991A99118950FEF08BB05BB02BBE0E6FB
:1000F00000E0F0E000830183028303839CDFABDF39
:1001000078940000FECF00008895FECF03EA0DBF73
:1001100000E00EBFC4E8D0E006D0002309F013D001
:10012000E2DFF1DFF0CF01E0089520E006D0E9F74B
:100130000895259102D0E9F708952D9301501040BC
:10014000202F212B089580E390E0FC01059114916C
:10015000FC013296A591B491FC013496259134911D
:10016000422F432B19F0F901E4DF01C0DEDF0696D0
:0A01700010E08633910748F308956C
:00000101FF
:00000001FF
