:0200000009C035
:10000200FECFFDCFFCCFFBCFFACFF9CFF8CFF7CFA2
:10001200F6CFF894EE27ECBBE5BFF8E1A4B7A77FD3
:10002200A4BFF1BDE1BD8DE0A2E0ED938A95E9F7B1
:1000320080E4A0E6ED938A95E9F7EFE9EDBFC0E72A
:100042000EC0C09AA0E2BEE421D0C098A8EEB3E0F0
:100052001DD0C19AA8E8B3E119D0C1980895E0E88B
:10006200E6BDE0E0E6BDE8BBE3E0E7BBB4990AC069
:10007200A4E60AD0B49906C0B29904C0A2E304D09F
:10008200B29BDFDFF3CFFFCFB0E000C0109639F0B4
:1000920080ED97E00197F1F7A8951197C9F70895B8
:00000001FF
