:020000020000FC
:100000009DC01895189518951895189518951895D8
:100010001895189518951895189518951895189578
:100020001895189518950001051555FF7F5FF00389
:0500300000A00000002B
:100036000093A00008958CD0A2EAB0E01C9111971D
:10004600112369F410E811961C93E6E2F0E010E043
:10005600E00FF11F04911E91101709F00C931196F1
:100066000C911E91102311F0A99A01C0A99806952A
:1000760011960C93E4E071C00091A000DCCFA19A28
:10008600A99800E0D5CF05B5087F05BD08E005BDF8
:1000960004E603BD00E004BD089508B707FF04C0E9
:1000A60000E808BF01E0089500E0089505B5026084
:1000B60005BD08950FEF08BB05BB02BB01E008951F
:1000C60049D080E090E014D0DEDFF0DFD8DF01E039
:1000D600AFDFE3DF0023E9F3019600EF10EF0BD06B
:1000E600883E03E09007A8F380E090E0C5DFF1CFFB
:1000F600B89AC09A089521E030E0C09A4FE001C056
:1001060000004A95E9F75AE0C09AC098B901602301
:100116007123672B11F0C09A01C0C098000000003F
:100126000000220F331F452F5A95442369F7E1CF6C
:1001360000008895FECF0FE90DBF00E00EBFC0E8B6
:10014600D0E0B8DF002309F021D0BADFF1DFF0CF2D
:10015600BA93AA939A938A930895BB81AA819981A7
:100166008881F0E00FB6F894CE0FDF1F0FBE08951A
:1001760020E006D0E9F70895259102D0E9F7089521
:100186002D9301501040202F212B08958FE290E0EF
:10019600FC0105911491FC013296A591B491FC01E4
:1001A600349625913491422F432B19F0F901E4DF5F
:1001B60001C0DEDF069610E08533910748F3089507
:0400000300000000F9
:00000001FF
